:020000040800F2
:100000000017002001010008EB130008D1110008BF
:10001000E9130008B5020008032B000800000000E7
:10002000000000000000000000000000B116000801
:100030002903000800000000AF160008B3160008EE
:100040001B0100081B0100081B0100081B01000820
:100050001B0100081B0100081B0100081B01000810
:100060001B0100081B0100081B0100081B01000800
:100070001B0100081B0100081B0100081B010008F0
:100080001B0100081B0100081B0100081B010008E0
:100090008D2A00081B0100081B0100081B01000835
:1000A0001B0100081B0100081B0100081B010008C0
:1000B0001B0100081B0100081B0100081B010008B0
:1000C0001B0100081B0100081B0100081B010008A0
:1000D0001B0100081B0100081B0100081B01000890
:1000E0001B0100081B0100081B010008DFF80CD0F1
:1000F00000F044F800480047AD2C0008001700202D
:100100000648804706480047FEE7FEE7FEE7FEE7B1
:10011000FEE7FEE7FEE7FEE7FEE7FEE75D17000805
:10012000ED00000840EA01039B0703D009E008C97D
:10013000121F08C0042AFAD203E011F8013B00F8AC
:10014000013B521EF9D27047D2B201E000F8012BF8
:10015000491EFBD270470022F6E710B513460A4647
:1001600004461946FFF7F0FF204610BD421C10F868
:10017000011B0029FBD1801A70470000064C074D77
:1001800006E0E06840F0010394E807009847103467
:10019000AC42F6D3FFF7AEFF442E0008642E0008F1
:1001A00070B58C1810F8015B15F0070301D110F839
:1001B000013B2A1106D110F8012B03E010F8016B66
:1001C00001F8016B5B1EF9D12B0705D40023521EE9
:1001D0000DD401F8013BFAE710F8013BCB1A921C51
:1001E00003E013F8015B01F8015B521EF9D5A1424F
:1001F000D8D3002070BD000070B504460068816847
:10020000C943C9071CD1816821F00101816000F058
:1002100033FC05460FE000BF00F02EFC401B022817
:1002200009D9A06A40F01000A062E06A40F0010025
:10023000E062012070BD20688068C043C007EBD039
:10024000002070BDF8B5002604460096006881685D
:10025000C943C90728D0816841F001018160134872
:1002600013490068B0FBF1F000E0401E0090002848
:10027000FBD100F001FC054611E000BF00F0FCFBE3
:10028000401B02280BD9A06A40F01000A062E06A6F
:1002900040F00100E06284F824600120F8BD20688D
:1002A0008068C043C007E9D10020F8BD9400002059
:1002B00040420F00FEE7002070470020704700001A
:1002C00010B500220449054801F05EFB04490348CB
:1002D00001F054FB002010BD140F0020DC010020B1
:1002E0002C0B002010B50146034801F047FB0248E3
:1002F00001F028FB002010BDDC010020094A10B5E8
:10030000D2F8B822D2F814220AB1012010BD0A4650
:100310000146044801F038FBBDE81040014801F0F7
:1003200091BB0000DC01002070477047F8B5002247
:10033000009290F8244083681646012C1CD00124BA
:1003400080F82440D3B14D680B691F249D4226D804
:100350001F055B1BC3F103030D6803EB83039D4083
:10036000A7F580172F439C40036844F440159C6B0D
:10037000AC4327439F631EE00220F8BD4B68012B6E
:1003800005D0826A42F020028262012213E00368F3
:100390009C6B0D686FF3150444EAC5340AE05B1BDF
:1003A000C3F1030303EB83039C40036844F440154B
:1003B0009C6BAC439C6303689C68E443E40706D0F1
:1003C0009C6847F20105AC438D692C439C604B7DD2
:1003D000012B08D18B69B3F5E04F08D0826A42F057
:1003E0002002826201220B7D012B06D00CE0036803
:1003F0005C6844F480645C60F5E74B7DA3B1826A7D
:1004000042F02002826201220B68072405680A2B51
:1004100010D3EF680A3B03EB43039C40A7438C686F
:100420009C402743EF600EE003685C6844F480540E
:100430005C60E9E72F6903EB43039C40A7438C68AA
:100440009C4027432F610B68102B01D0112B04D146
:1004500003689C6844F400049C604B68012B10D036
:10046000022B16D0032B03681BD01C6ACD686FF3D8
:100470000B042C431C620B68102B19D0112B17D0C6
:1004800037E003685C69CD686FF30B042C435C6153
:10049000F1E703689C69CD686FF30B042C439C6102
:1004A000E9E7DC69CD686FF30B042C43DC61E2E71C
:1004B000124C0368A34217D19C68240219D49C688B
:1004C00044F400049C600968102912D10C490D4BBA
:1004D0000968B1FBF3F101EB8101490000E0491E1D
:1004E00000910029FBD104E0816A41F02001816282
:1004F000012280F824601046F8BD0000002401406D
:100500009400002040420F000068022909D003290E
:1005100005D0042901D0C06B7047806C7047406CD7
:100520007047006C7047000070B5044690F82400D6
:1005300001280DD0012084F824002046FFF782FE18
:1005400001004FF0000005D084F82400084670BD7B
:10055000022070BDA26A42F201039A4342F4805223
:10056000A262194A2568194B95421AD11E6816F4E1
:10057000702F16D0A66A46F48016A662A66AF60503
:1005800000D4E06284F824006FF004002860206842
:1005900044686405DAD48468C4F30234072C04D0B8
:1005A00009E0A66A26F48016E7E7904208D11A68A7
:1005B00012F4702F04D0826842F400428260C5E7D2
:1005C000826842F40212F9E7002801400424014045
:1005D0002DE9F0414FF0000704003D467ED0A06AAF
:1005E000002628B9E66284F82460204600F07EF8F0
:1005F0002046FFF701FEA16AC90600D420B1A06A17
:1006000040F01000A06269E0A16A21F4885141F035
:100610000201A1626268E169237B0A4347EA430160
:100620000A43A1684FF48077B94209D0012907D065
:100630005FF0000194F814C0BCF1010F02D00AE091
:100640003946F7E7F3B1A36A43F02003A362E36AF4
:1006500043F00103E3622368D3F804C02CF4694C2F
:100660004CEA010CC3F804C021688B68DFF870C045
:1006700003EA0C0313438B60A168B9420BD0012934
:1006800009D00CE0DFF85CC0A3690CEB43330B43EB
:1006900043F40061DFE7218A0D05A5F58015216887
:1006A000CB6A23F470032B43CB62216889680E4B1D
:1006B0001940914208D1E662A16A21F0020141F09D
:1006C0000101A162BDE8F081A06A20F0020040F0C3
:1006D0001000A062E06A40F00100E0620120F1E752
:1006E000FDF7E1FF00E0FFFFFE0E1FFF00B585B044
:1006F0000021009101910291039100680E49884206
:1007000018D10E48816941F400718161816901F459
:1007100000710491816941F0040181618069694639
:1007200000F004000490072000900320019004488A
:1007300000F0B2F805B000BD0024014000100240F6
:10074000000801402DE9F84300260D4604460096B6
:1007500000F092F9804620688168C90508D5A06A32
:1007600040F02000A06284F824600120BDE8F883F6
:100770004168C90503D4C06A10F4700F26D0022066
:1007800000F09EFC38490968B1FBF0F72068036966
:1007900036490B424FEA61014FEAA1121BD1C368EF
:1007A0004FEA611C13EA0C0F15D103690B4221D1EA
:1007B000C06810421ED114201FE0681C06D045B34B
:1007C00000F05AF9A0EB0800A84222D8206800687F
:1007D0008007F2D52AE003690B4202D1C1681142B9
:1007E00006D0026922490A4206D1C068084203D1F4
:1007F000542002E0292000E0FC204743009813E049
:10080000681C0ED02DB100F037F9A0EB0800A8420B
:1008100007D9A06A40F00400A06284F82460032095
:10082000A4E70098401C0090B842E9D321686FF01B
:1008300012000860A06A40F40070A062206880681E
:10084000C0F3424007280CD1207B50B9A06A20F4A5
:100850008070A062A06AC00403D4A06A40F00100C6
:10086000A062002082E70000940000202449922426
:100870004992240070B5044600F0FEF80546601C5D
:1008800002D004480078044400F0F6F8401BA0426F
:10089000FAD370BD880000202DE9F84FDFF8B89139
:1008A000002409F1040A0AF1040B23460F270BF177
:1008B000040EC9E00125A5402A40AA427DD1674E19
:1008C000D1F804C0ACEB0608B44532D014DCBCF15E
:1008D000030F3AD009DCBCF1000F2AD0BCF1010FA4
:1008E0001CD0BCF1020F31D11DE0BCF1110F17D0AB
:1008F000BCF1120F2AD119E0B8F5881F19D006DC17
:10090000B8F5803F15D0B8F5801F1FD111E0B8F5BC
:10091000001F0ED0B8F5041F18D10AE0CB6815E00F
:10092000CB681B1D12E0CB6808330FE0CB680C339B
:100930000CE08B682BB1012B4FF0080303D045610D
:1009400004E0042302E0056100E00023FF2A01D84F
:10095000064601E000F104064FEA840501D9A5F13D
:100960002005D6F8008007FA05FC28EA0C0803FAEF
:1009700005F548EA0508C6F800804D68ED0062D527
:10098000374DAE6946F00106AE61AD6924F003064D
:1009900005F001050095334D06EB050CDCF8085019
:1009A000A607360F07FA06F825EA0805DFF8B8802B
:1009B000404503D14FF0000817E044E0DFF8AC8079
:1009C000404502D14FF001080FE0DFF8A480404518
:1009D00002D14FF0020808E0DFF89880404502D1CC
:1009E0004FF0030801E04FF0040808FA06F848EA5F
:1009F0000508CCF808804D68D9F80060ED034D4635
:100A000001D5164300E096432E604D68DAF8006089
:100A1000AD03554601D5164300E096432E604D6860
:100A2000DBF80060ED025D4601D5164300E0964319
:100A30002E604D68DEF80060AD02754601D51643A4
:100A400000E096432E60641C0D682A46E5407FF462
:100A500031AFBDE8F88F0000000401400000111024
:100A6000001002400000014000080140000C01405D
:100A700000100140001401400148806870470000E8
:100A80008800002002488168027811448160704724
:100A900088000020074810B5016841F0100101608E
:100AA000032000F075F8002000F006F800F024F8AC
:100AB000002010BD0020024070B50D4D04464FF4DB
:100AC0007A712878B1FBF0F00A490968B1FBF0F0BF
:100AD00000F06AFB48B9102C07D200222146501EB4
:100AE00000F036F800206C6070BD012070BD000081
:100AF00088000020940000200C4808B5816941F06E
:100B000001018161816901F001010091C16941F038
:100B10008051C161C06900F0805000900448416874
:100B200021F0E06141F00071416008BD0010024019
:100B300000000140002809DB00F01F020121914064
:100B40004009800000F1E020C0F80011704700006B
:100B5000F0B40E4B1B680C46C3F30223C3F1070528
:100B6000042D00D90425191D072901D2002300E016
:100B7000DB1E012606FA05F1491E214099409E40E0
:100B8000761E16403143F0BC01F0D0BF0CED00E002
:100B9000064900F0070208684FF6FF03184040EAD4
:100BA0000220034A10430860704700000CED00E08B
:100BB0000000FA0510B50C0605D501F0070100EBA1
:100BC0004110283003E000EB411000F5947099B219
:100BD00032B1012202730181190C4181002010BD44
:100BE00000220273C180F9E7704700EB4112D0F890
:100BF0006802D26B01F0D5B800EB4112D0F8680260
:100C0000D2F83C2101F030B970B504460B0601F072
:100C1000070004EB40114FF001024FF0000503D52F
:100C200081F82920283103E081F8295101F59471D8
:100C3000087094F82802012808D084F82822206837
:100C400001F057FD84F82852002070BD022070BDCD
:100C500070B5044601F00F006268904201D901208E
:100C600070BD0B0601F0070004EB40114FF00102CC
:100C70004FF0000503D581F82920283103E081F8E1
:100C8000295101F594718D70087094F8280201289B
:100C900008D084F82822206801F0CEFD84F828527C
:100CA000002070BD022070BD01F0070100EB411073
:100CB000D0F8440170472DE9F04104460F0601F0D9
:100CC000070004EB40114FF001064FF0000503D57B
:100CD00081F82960283103E081F8295101F59471E8
:100CE00008700A61CB704A7802B1C881022B00D12A
:100CF0000D7194F82802012809D084F82862206830
:100D000001F0C2FB284684F82852BDE8F081022099
:100D1000FBE770B50C4601F0070500EB4511C1E992
:100D20004F230022C1F8442181F8292181F828515C
:100D300001F594716207006801F0D3FD002070BDD9
:100D400070B504460D4601F007006168884201D97C
:100D5000012070BD29064FF000064FF0010205D5B5
:100D600004EB401181F82920283105E004EB4511FE
:100D700081F8296101F594718A70087094F828024D
:100D8000012807D084F82822206801F091FD680727
:100D900002D006E0022070BD04F50C71206801F05D
:100DA00049FD84F82862002070BD70B50C4601F042
:100DB000070500EB4511C1E90F2300224A64012217
:100DC00081F8292001F8285F6207006801F089FD99
:100DD000002070BD10B50446006801F05DFE0004FF
:100DE00002D5204600F002FB206801F055FE4005C8
:100DF0000CD5206830F8441F21F480610180204622
:100E000000F0FCF80021204600F013F9206801F002
:100E100043FE400405D5206830F8441F21F480418A
:100E20000180206801F038FE800405D5206830F884
:100E3000441F21F400510180206801F02DFEC00400
:100E400014D5206830F8401F21F00401018020688B
:100E500030F8401F21F008010180204600F0E1F841
:100E6000206830F8441F21F480510180206801F08F
:100E700013FE00051FD5206830F8401F41F008011F
:100E80000180206830F8441F21F40061018020684F
:100E900030F8401F41F004010180206801F0FCFDA2
:100EA000C00405D5206830F8441F21F4805101802A
:100EB000204600F0F3F8206801F0EEFD800508D52B
:100EC000206830F8441F21F400710180204600F0B2
:100ED000ACF8206801F0E0FDC00505D5206830F8C9
:100EE000441F21F48071018010BD00002DE9F04104
:100EF00086B0040004D094F82902002520B108E04F
:100F0000012006B0BDE8F08184F82852204600F0A8
:100F100057F8032084F82902206801F084FC04F1CA
:100F20001001142288466846FFF7FCF894E80F0089
:100F300001F0DDFB0227B0BB0021206801F0C6FDF7
:100F4000002001260DE000BF04EB401181F829606C
:100F500001F8280FC881CD700D614D61401CC0B2F1
:100F60008D6161688142EFD800200FE004EB4011F1
:100F700081F8295181F8280181F82B51C1F83851A5
:100F8000C1F83C51401CC0B2C1F840516168814277
:100F9000ECD8142241466846FFF7C4F894E80F00E5
:100FA00001F032FC10B184F82972A9E784F82450CA
:100FB00084F82962206801F025FC0020A1E70000E8
:100FC00008B500680B49884212D10B48C16941F449
:100FD0000001C161C069002200F4000000901146C8
:100FE0001420FFF7B5FDBDE808401420FFF7A2BDAF
:100FF00008BD0000005C00400010024070B50446CF
:1010000080680125022801D0FFF78FF92946D4F81E
:10101000680201F010F8D4F86802BDE8704000F0F2
:10102000CCBFD0F8680200F0F0BFD0F8680200F042
:10103000F6BF10B5044690F8280201280BD0012015
:1010400084F8280284F82410206801F041FD002073
:1010500084F8280210BD022010BDD0F8682200F5E7
:101060000C71104600F0F3BF10B5044690F828024A
:10107000012810D0012084F8280201462046FFF7FD
:10108000B3FD206801F0BCFB206801F0F8FC0020F3
:1010900084F8280210BD022010BD000010B50446DF
:1010A000D0F8680201F012F8A069002804D00348C3
:1010B000016841F00601016010BD000010ED00E084
:1010C00010B529A401461DCC86B08DE81D002AA0CC
:1010D0002A4C006804900020012923D002293AD02C
:1010E00010291DD161682268D20119D5C1F383424C
:1010F000C9031DF8020009D5616804AAC1F3404183
:10110000515C1F4AB2FBF1F1484301E01D494843DD
:101110006168490204D440005FF00301B0FBF1F0C4
:1011200006B010BD226AC2F30121012903D1920742
:1011300001D5C803F4E7022905D1626A920702D5F6
:1011400049F64040ECE70329EAD121688903E7D555
:101150004FF22440E4E700F017F86168C1F38131F1
:10116000491C4900DAE700000203040506070809E4
:101170000A0B0C0D0E0F10100102000000100240AF
:1011800000127A0000093D000448054900684968DA
:10119000044AC1F3C221515CC8407047940000204A
:1011A000001002403C2E000810B5401EB0F1807FB8
:1011B00001D3012010BD4FF0E02460610F216017C2
:1011C00001F0B4FC0020A06107202061002010BDC8
:1011D000FEE70000F0B500230A24302537261F461D
:1011E00011E000BFB4EB107F02D905EB107C01E0E9
:1011F00006EB107C01F813C001EB430C00015B1CF3
:101200008CF80170DBB29342ECD3F0BD044908B511
:101210008A6902438A6189690140009108BD000022
:1012200000100240F0B50A68C2F30F2595FAA5F246
:10123000B2FA82F369E001229A402A4264D0082B74
:1012400003D240F201129A4006E0A3F108024FF0E7
:101250000114944044F0806292FAA2F700EB126409
:10126000B7FA87F74FEA870C0F27266807FA0CF7BB
:10127000BE4392FAA2F7D1F804E0B7FA87F7BF00AD
:101280000EFA07FE46EA0E0626600E69C7684FEAA8
:10129000122C9CFAACFCBCFA8CFC27EA122706FA4A
:1012A0000CF63743C7604E68012E01D0092E2BD1B2
:1012B00092FAA2F7B7FA87F74FEA870C032707FAE3
:1012C0000CF72668D1F808E0BE4392FAA2F7B7FA05
:1012D00087F7BF000EFA07FE92FAA2FC46EA0E0656
:1012E000BCFA8CFC4FEA8C0E4FF0040C26600CFA12
:1012F0000EFC92FAA2F2B2FA82F2CF68920026EACB
:101300000C0697403E4326605B1C35FA03F292D1EF
:101310000020F0BD014908607047000094000020E3
:1013200070B588B01C216846FEF715FF18481749AC
:10133000002401608915816004730475012505612D
:101340004FF460214460C161FFF742F9CDE90045E7
:101350004FF4E040032606908DF815400496029461
:101360008DF8144069460A480394FEF7DFFF022413
:10137000CDE9005469460648FEF7D8FFCDE900469E
:1013800069460348FEF7D2FF08B070BD0024014053
:10139000AC01002010B500220F49104800F0DAFC23
:1013A00008B1FEF7C2FF0E490C4800F0B5FE08B1C7
:1013B000FEF7BBFF0B49094800F0D8FA08B1FEF769
:1013C000B4FF064800F0FEFE002803D0BDE8104040
:1013D000FEF7ABBF10BD000028000020DC0100209C
:1013E0007401002078000020FEE770472DE9F05FCF
:1013F000044648F60F7B4FF0020A4FF480684AE13A
:10140000B0F8441011F00F0629D030F826703904D6
:1014100079D530F8261040F68F72114041F08001E6
:1014200020F8261004EB461595F8340105F594755F
:101430000028206868D0297830F8212052047DD512
:10144000B0F850200AEBC1010A4408EB4201415AAE
:10145000C1F309015FEA010971D02A89D2E0C90606
:101460002DD4018801EA0B0141F40041018020687C
:1014700004F12805B0F850202B780AEBC3010A4488
:1014800008EB4201405AC0F309006064E16B084474
:10149000E06300212046FFF7A8FB94F82400002811
:1014A000ADD0A8690028AAD194F82400216840F0A2
:1014B0008000A1F84C00002084F82400EBE00188B3
:1014C00004F594750A0520D5B0F850202B78062134
:1014D00001EBC3010A4408EB4201405A04F50C71C8
:1014E000C0F30903EB61EA88206801F0D9FA2068AB
:1014F000018840F68F72114041F080010180204642
:10150000FFF7ABFDC7E0A2E058E0090455D501881C
:1015100040F68F72114041F0800101802168B1F8DE
:1015200050202B78062000EBC300024408EB420059
:10153000085A83059B0DEB6110D001E053E065E094
:10154000696959B1EA88206801F0AAFAE96968690D
:101550000844686100212046FFF74EFB2068B0F880
:1015600050100844296900F20C4051B13E2910D8AE
:101570004A08C90700D0521C4FF6FF7101EA8221C8
:101580000FE0018821F4F8410180018841F4004115
:1015900007E04A09C90600D1521E4FF4004141EA52
:1015A00082210180206801884BF68F72114081F4FE
:1015B000405148F28002114301806CE0B0F85020A5
:1015C0002B78062101EBC3010A4408EB4201415A82
:1015D000C1F309015FEA010924D0EA884B46696931
:1015E00001F05EFA1EE0B0F85030062202EBC101B5
:1015F0005A1808EB4201415AC1F309015FEA010997
:1016000004D06A894B46696901F04AFA2878226851
:1016100032F8201048F68F73194048F2C00319437E
:1016200022F82010E8694844E861686900EB090283
:101630006A61AB6913B12869484504D92978204605
:10164000FFF7DAFA03E029782046FFF762FB380655
:1016500021D5216804EB461031F8262002EA0B025E
:1016600042F4004221F826202168B1F8505010F8C9
:10167000282F0AEBC2022A4408EB4202895AC1F31E
:101680000901C16142690A444261017883692046C7
:1016900053B1FFF78AFB2068B0F8441009043FF506
:1016A000AFAE0020BDE8F09FFFF79FFAF3E7704769
:1016B0007047FFF7E7B90000254810B5016821F031
:1016C000070141F0010101600068224C206840F4EC
:1016D000803020602068C0F340400028FAD0606865
:1016E00020F47C1040F488106060206840F0807026
:1016F00020602068C0F340600028FAD0606820F0C5
:10170000F0006060606820F4E06040F48060606039
:10171000606820F460506060606820F0030040F072
:1017200002006060606800F00C000828FAD10A48E6
:10173000FFF7F0FD0020FFF7BFF9606820F440409C
:1017400040F480406060606840F48000606010BDDC
:101750000020024000100240006CDC020D480168CD
:1017600041F00101016041680B4A1140416001688C
:101770000A4A11400160016821F48021016041683A
:1017800021F4FE0141604FF41F0181600449C00350
:1017900008607047001002400000FFF8FFFFF6FEEF
:1017A00008ED00E02DE9F041D0F8C032D0F8B822C1
:1017B000CAB101EB810400EB84040025E6693EB167
:1017C00003EB41139B6BB6FBF3F703FB176323B1EA
:1017D000C2F814520020BDE8F08100231A46E561EA
:1017E00000F07DFCF6E70220F5E770B50546D0F87D
:1017F000B84200F07AFBC4F80C02D5F8B80248B140
:10180000D5F8BC12D4F80402CA6804F503719047F5
:10181000002070BD022070BD70B5044600268121F5
:1018200000F0B6FA002501212046E56200F0B0FA8A
:1018300082212046C4F86C5100F0AAFA2564D4F83D
:10184000B80248B1D4F8BC0204F52E744068804751
:10185000206800F014FE2560304670BD10B5D0E958
:10186000AE4159B194F80002FF2807D08B6894F874
:10187000012221469847FF2084F80002002010BD75
:101880000A210180004870479C000020432101800C
:1018900000487047EC000020432101800048704759
:1018A000A80000204321018000487047300100203B
:1018B0002DE9F04104460026007C4FF40077012515
:1018C00090B3402302228121204600F061FB402397
:1018D000E56202220121204600F05AFB0823032280
:1018E00082212046C4F86C5100F052FB4FF407707F
:1018F000256400F0C5FDC4F8B802F8B10546D4F877
:10190000BC02006880470020C5F81402C5F8180220
:10191000207CD5F8042298B140230121204600F014
:1019200043FB3046BDE8F081FFE73B4602228121C0
:10193000204600F02DFB3B46E562CAE70126F0E7B2
:101940003B46EAE710B5D0F8B81269B1027C002A2C
:10195000D1F8042205D04023012100F025FB00200E
:1019600010BD4FF40073F7E7022010BD02460220BD
:10197000002902D00020C2F8BC127047D0F8B8028B
:10198000C0F8041200207047D0F8B802C0F8102246
:10199000C0F80812002070472DE9FC410546D0F838
:1019A000B87200208DF80000ADF8040006460878F3
:1019B0000C4610F0600121D020293BD1E288AAB169
:1019C0000006607807D5D5F8BC128B683946984771
:1019D000E288394626E087F80002A07987F80102FC
:1019E000E2883946284600F06AF828E0D5F8BC12AB
:1019F000607800228B682146984720E0607820B10B
:101A00000A2809D00B2815D110E095F89C0203286C
:101A100010D1022201A905E095F89C02032809D102
:101A200001226946284600F064F808E095F89C0217
:101A3000032804D02146284600F036F80226304616
:101A4000BDE8FC8110B5D0F8B812A1B1D1F81422CC
:101A50000AB1012010BD0122C1F81422D1F81022D0
:101A60000263B1F8102293B2D1F80822812100F06C
:101A700036FB002010BD022010BD10B5D0F8B422F6
:101A800052689047002010BD134610B50A46002149
:101A900000F08AFA002010BD134610B50A46002156
:101AA00000F01DFB002010BD10B50446802100F0A1
:101AB000FBFA2046BDE81040002100F0F5BA10B551
:101AC0000323C0F85C21C0F89432C0F860211346AB
:101AD0000A46002100F068FA002010BD10B505216B
:101AE0000023C0F894121A46194600F05DFA00204F
:101AF00010BD10B50223C261C0F8943202621346D1
:101B00000A46002100F0EBFA002010BD10B50421B8
:101B10000023C0F894121A46194600F0E0FA00209B
:101B200010BD000010B50A46024903A000F0E2F81B
:101B3000004810BD2C09002043444320436F6E66CB
:101B400069670000122008800048704748000020A4
:101B500010B50A46024903A000F0CCF8004810BDB9
:101B60002C09002043444320496E7465726661630A
:101B700065000000042008800048704744000020F1
:101B800010B50A46024903A000F0B4F8004810BDA1
:101B90002C09002053544D6963726F656C65637442
:101BA000726F6E696373000010B50A46024903A0A4
:101BB00000F0A0F8004810BD2C09002053544D330C
:101BC00032205669727475616C20436F6D506F726C
:101BD0007400000010B51A2008800A480168001D32
:101BE0000468001D0068081809D008220649FFF79C
:101BF000F1FA0549042210312046FFF7EBFA0248BA
:101C0000801E10BDE8F7FF1F5E000020F8B50446F7
:101C10000020ADF8000048880D46010A082948D286
:101C2000DFE801F04704091747473C45D4F8B012F4
:101C3000207C0A6819E0207C02260028D4F8B4022F
:101C400005D0C16A68468847014646703EE0816A11
:101C5000F8E7C0B206282CD2DFE800F0030A10141F
:101C6000181CD4F8B002426805E0694690471CE0B1
:101C7000D4F8B0028268E2B1207CF6E7D4F8B00272
:101C8000C268F8E7D4F8B0020269F4E7D4F8B00209
:101C90004269F0E7D4F8B0028269ECE7207C40B9F1
:101CA000D4F8B402416B6846884701460EE0207CB8
:101CB00020B129462046FFF7F7FEF8BDD4F8B4025C
:101CC000016B68468847014607204870BDF8000050
:101CD00048B1EA8852B1824200D90246ADF80020EC
:101CE0002046FFF706FFE8880028E6D12046FFF7E8
:101CF0000DFFF8BD70B5002300281ED00446002556
:101D000002E06D1CEDB2641C2678002EF9D102248D
:101D100004EB450414801278CA545B1C0322CA5495
:101D200000245B1C06E0CA545B1CDAB28C54521CC3
:101D3000D3B2401C0278002AF5D170BD01004FF0EB
:101D4000000004D0012901D0022901D002207047EF
:101D50000120704710B580B1D0F8B43213B1002320
:101D6000C0F8B43209B1C0F8B012012180F89C1259
:101D7000027000F0BFF8002010BD022010BD10B5A9
:101D8000D0F8C002FEF764FFBDE81040FFF7D6BFF1
:101D900010B5D0F8C002FEF737FFBDE81040FFF7DE
:101DA000CDBF2DE9F0411746044651B1D4F8B40235
:101DB00042691AB194F89C02032851D00220BDE870
:101DC000F081D4F89432002504F11400022B03D0E2
:101DD000042B3AD0C3B33CE0D0E903639E4207D959
:101DE000F11AC1608AB239462046FFF755FE12E06B
:101DF0008068B0FBF3F103FB110199B9984211D34C
:101E0000D4F8981288420DD2002211462046FFF7DE
:101E100043FEC4F8985200231A461946204600F0A3
:101E2000C3F816E0D4F8B402C16829B194F89C0252
:101E3000032801D1204688478021204600F034F94C
:101E40002046FFF74BFE04E0FFE78021204600F02C
:101E50002BF994F8A002012804D184F8A05201E0E3
:101E6000204690470020AAE770B51546044649B1C0
:101E7000D4F8B40282691AB194F89C02032830D0D5
:101E8000022070BDD4F8941204F5AA70032902D080
:101E900005291ED027E0D0E903218A420BD9531A25
:101EA000C3600846834200D303469AB229462046BF
:101EB000FFF7EAFD17E0D4F8B402016929B194F8FC
:101EC0009C02032801D1204688472046FFF71EFECA
:101ED00009E000200146C4F89402204600F0E4F82E
:101EE00001E020469047002070BDD0F8C002FEF708
:101EF000DBBE000010B504461C481D49C0F868420E
:101F0000C4F8C00201600821416002218160002103
:101F10008161C1610162FEF7E9FF08B1FEF705FAD0
:101F20000022D4F8C0021823114604F53074FEF7DD
:101F300041FE5823002280212068FEF73BFEC0238B
:101F4000002281212068FEF735FE4FF488730022BD
:101F500001212068FEF72EFE4FF4807300228221BB
:101F60002068FEF727FE002010BD0000C0060020FC
:101F7000005C00400A06D0F8C00201F07F0100EBCF
:101F8000411002D590F82A00704790F82A01704756
:101F900010B51C461346D0F8C0022246FEF78BFE51
:101FA000BDE81040FFF7CABE10B5D0F8C002FEF77A
:101FB000B0FEBDE81040FFF7C1BE70B50022044678
:101FC00040231146FFF7E4FF40260125C4F8646171
:101FD0003346002280212046C4F85851FFF7D8FF2D
:101FE0006662A56184F89C520020C4F89402606087
:101FF000C4F8A402D4F8B80228B1D4F8B40200217D
:10200000426820469047002070BD90F89C12042939
:1020100003D190F89D1280F89C120020704710B5F3
:1020200090F89C12032904D1D0F8B412C96901B107
:102030008847002010BD01740020704710B5D0F80B
:10204000C002FEF7F6FFBDE81040FFF777BE70B59F
:10205000044600F52A70054600F04AF80120C4F84D
:102060009402B4F8AE02C4F8980294F8A80210F0F2
:102070001F010AD001290DD0022910D000F08001E3
:10208000204600F011F8002070BD2946204600F0DF
:102090009EF8F8E72946204600F0CAF9F3E72946FA
:1020A000204600F01DF9EEE710B5D0F8C002FEF7AB
:1020B00047FEBDE81040FFF741BE10B5D0F8C002A2
:1020C000FEF7D2FFBDE81040FFF738BE90F89C1233
:1020D00080F89D12042180F89C120020704710B5F2
:1020E000D0F8C002FEF761FEBDE81040FFF726BE43
:1020F0000A7802704A7842708A78CB7802EB032221
:1021000042800A794B7902EB032282808A79C9796D
:1021100002EB0121C18070470246002011B1C2F8D4
:10212000B41270470220704710B5D0F8B4220224D0
:102130001AB11268904700B90024204610BD000073
:1021400070B50E461E4D897804462970012931D894
:1021500094F89C0202280BD003280FD03146204669
:10216000FFF7A2FC29782046BDE87040FFF785BC48
:10217000D9B10320616084F89C0209E071B1606804
:10218000884212D0C1B22046FFF777FC29786160FF
:102190002046FFF7C9FF02280CD006E0022084F891
:1021A0009C0220466160FFF768FC2046BDE8704055
:1021B000FFF7ACBC31462046BDE87040FFF774BC69
:1021C0009800002010B5FFF778FF002010BD2DE922
:1021D000F0410A78002612F0600208D0202A01D0CF
:1021E000402A70D1D0F8B422926890476DE04B78C5
:1021F000002201250A2B66D2DFE803F0405D655717
:10220000650805652C29FFF701FD5EE00446888816
:10221000D8B9C888C8B94888802816D200F07F0786
:1022200094F89C02032810D084F89E723946204608
:10223000FFF704FF2046FFF769FC1FB1022084F876
:102240009C0242E084F89C523FE020463BE0FFF7CE
:1022500077FF3AE0CB88012B35D190F89C32012BE7
:1022600004D0022B02D0032B2DD104E08260012286
:1022700000F1080116E00122011D13E090F89C22F4
:10228000012A03D0022A01D0032A1CD1CA88022ABB
:1022900019D1C560D0F8A41209B10321C16002228E
:1022A00000F10C01FFF725FC0FE0498801290CD152
:1022B000C0F8A45211E090F89C32012B08D0022BF8
:1022C00006D0032B04D0FFF7EFFB3046BDE8F081CA
:1022D00049880129F9D1C0F8A422FFF717FCF4E7D7
:1022E0002DE9F0410A46044610780027097910F0DC
:1022F00060030AD0202B01D0402B50D1D4F8B40277
:1023000011468368204698478FE0C0F341100128AA
:1023100006D05078D0B301282AD003283FD107E057
:10232000D4F8B402114683682046BDE8F04118474E
:1023300094F89C02022802D0032872D10AE071B3FB
:1023400080296ED02046FFF7AFFE80212046FFF7A0
:10235000ABFE6AE0508838B931B1802904D0D0880A
:1023600010B92046FFF7A0FE2046FFF7CFFB5CE048
:1023700094F89C020228E2D0032852D1508898BBDE
:102380004806F1D02046FFF7FAFCEDE7FFE794F8A6
:102390009C020026022803D0032842D112E040E02C
:1023A00009B180293DD1080601F07F0000EB8000D3
:1023B00004EB800101D5143101E001F5AA7102227C
:1023C0000E602AE0080601F00F0000EB800004EB2D
:1023D00080000AD5806920B301F07F0000EB800007
:1023E00004EB800514350BE01FE0D0F85801C0B1B4
:1023F00001F07F0000EB800004EB800505F5AA7575
:1024000041B1802906D02046FFF7B4FD10B101206C
:10241000286000E02E60022229462046FFF769FB73
:1024200003E011462046FFF73FFB3846BDE8F08148
:1024300070B5054608780C4610F0600003D02028DF
:1024400001D0402816D195F89C02012803D002281B
:1024500001D003280ED1207901280BD8D5F8B40279
:10246000826828469047E188014306D12846FFF755
:102470004DFB02E02846FFF717FB002070BD7047B8
:1024800000487047A00400202DE9F0470C784FF079
:10249000000C30F8243048F68F121340CA78002A16
:1024A0007DD0012A7CD0022A03D0032A79D04FF0B4
:1024B000010C48F28002134320F824300D7830F8E4
:1024C000254048F68F731C402C43144320F82540C8
:1024D0000F7B48F6BF744BF68F7948F2C0054CF27B
:1024E0008006EFB391F80080C24630F8287048F2B9
:1024F00080181F4047EA080720F82A70B0F850708B
:1025000091F80080074407EB0817B1F8088028F01D
:102510000108A7F80084B0F8507091F800800744D3
:1025200007EB0817B1F80A8028F00108A7F808841B
:102530004F7891F80080002F30F828704FEA474715
:102540007ED0002F05DA30F828701F40374320F87E
:1025500028700F7830F827805FEA486809D500E0D6
:1025600033E030F8278008EA030848EA050820F835
:1025700027800F7830F827501D40354320F827502A
:10258000CB780D78012B30F8253003EA040301D015
:1025900083F02003134320F825300B7802E00BE092
:1025A00010E00CE030F8231001EA0901114320F893
:1025B00023106046BDE8F08743F4007379E743F4E5
:1025C000C06376E743F4806373E74F7827B3B0F8CE
:1025D00050600F78064406EB0716CF8827F00107F6
:1025E000A6F800740F7830F82760760605D530F825
:1025F00027601E402E4320F82760CB78012B06D0A1
:102600000B7830F82310214081F02001CEE70B78C1
:1026100030F823102140C9E7B0F850400D78044449
:1026200004EB0514CD8825F00105A4F80854B0F892
:1026300050400D78044404EB051404F20C4400E00F
:1026400030E00D6955B13E2D10D86F08ED0700D070
:102650007F1C4FF6FF7505EA87250FE0258825F4D6
:10266000F8452580258845F4004507E06F09ED060B
:1026700000D17F1E4FF4004545EA872525800D785F
:1026800030F82540640405D530F825401C4034431B
:1026900020F825400B7830F8231001EA090181F475
:1026A000405183E7002F05DA30F828701F40374388
:1026B00020F828700E7830F826707F0605D530F89F
:1026C00026701F402F4320F826700F7830F82760BF
:1026D0001E402E4320F827600D7830F8253003EA9D
:1026E000090383F44053134320F825308FE700207B
:1026F00070472DE9F04391F80C804F780A7848F63E
:10270000BF7C4BF68F7948F2800348F2C0054CF24B
:10271000800648F68F74B8F1000F28D0002F30F8EB
:1027200022704FEA474748D0002F05DA30F8227070
:102730002740374320F822700A7830F822707F064D
:1027400005D530F8227027402F4320F822700D78ED
:1027500030F825202240324320F825200C7830F82C
:10276000242002EA0C021A4320F824201AE07FB148
:1027700030F82260760605D530F8226026402E43D8
:1027800020F822600A7830F8221001EA0C010EE0ED
:1027900030F822506D0405D530F8225025403543DD
:1027A00020F822500A7830F8221001EA0901194372
:1027B00020F822100020BDE8F083002F05DA30F861
:1027C00022702740374320F822700A7830F82260C0
:1027D000760605D530F8226026402E4320F8226088
:1027E0000E7830F8262022402A4320F826200C7844
:1027F00030F8242002EA09021A4320F82420C1E715
:10280000002070470020704700B50121A0F840105B
:102810000021A0F84010A0F84410A0F8501000F0DB
:102820002EF9002000BD30F8401F21F43F41018007
:10283000002070470020704730B50A7BB2BB4A7851
:1028400048F68F7548F28004C2B10B7830F8232027
:10285000520607D530F823202A4048F2C0052A4303
:1028600020F82320CA78012A20D00A7830F82210D4
:1028700048F6BF73194081F0200114E00A7830F85F
:1028800022305B0407D530F822302B404CF2800513
:102890002B4320F822300A7830F822104BF68F7341
:1028A000194081F44051214320F82210002030BD0E
:1028B00010B54A780978002A48F2800330F82120C0
:1028C00005D048F6BF74224082F0100204E04BF6B7
:1028D0008F74224082F480521A4320F82120002075
:1028E00010BDF0B50E46054691F801C00022097BE7
:1028F0003469B06948F28007BCF1010F04D0A042EE
:102900004FD9001BB0614EE0A04202D9001BB0615C
:1029100001E00446B26169B1307835F8201049060B
:10292000B5F85010294401EB001012D5A0F80C4462
:10293000728911E0A3B2F2882846716900F0CEF8DE
:10294000B5F850003178284400EB0110A0F8044499
:102950001EE0A0F804443289A3B22846716900F051
:10296000BDF8707848F68F7110B1012807D00FE0DC
:10297000327835F82200084048F2C00105E032788C
:1029800035F8220008404CF28001084325F8220067
:10299000317835F8210048F6BF72104080F03000E1
:1029A00068E00446B2614FF6FF724FF4004381B312
:1029B000BCF1000F15D027E0018821F4F841018017
:1029C000018841F400410AE03E2C3ED86108E3074B
:1029D00000D0491C02EA812101E043EA8121018003
:1029E00040E0B5F850003178284400EB011000F2C7
:1029F00004407CB13E2C15D861085FEAC47C00D04D
:102A0000491C02EA81210180707810B1012821D08F
:102A100028E00FE0018821F4F8410180018841F4A9
:102A20000041F0E761095FEAC46C00D1491E43EA46
:102A30008121E8E7B5F850003178284400EB011017
:102A400000F20C40002CBFD1B6E76109E206C4D108
:102A5000491EC2E7B5F850104819317800EB011053
:102A6000A0F80C44317835F821004BF68F721040F5
:102A700080F44050384325F821000020F0BD30F8A4
:102A8000401F41F43F410180002070470148FEF79C
:102A9000A1B90000C0060020B0F844007047000053
:102AA00010B500EB42005C0800F5806009D000BF63
:102AB00030F8042B01F8012B120A01F8012B641ED7
:102AC000F6D1DA0701D00088087010BD00207047E9
:102AD00011B98021A0F84C100020704710B55B1C84
:102AE00000EB42005B0800F5806009D011F8012B73
:102AF00011F8014B42EA042220F8042B5B1EF5D1A9
:102B000010BDFEE70FB4084B10B504A902AA039844
:102B100000F02BF8044602A9002000F091F82046AE
:102B200010BC5DF814FB0000412C00080907090ED9
:102B3000002804DB00F1E02080F80014704700F06A
:102B40000F0000F1E02080F8141D704702E008C873
:102B5000121F08C1002AFAD170477047002001E017
:102B600001C1121F002AFBD170472DE9F84F994689
:102B7000924688460546002706E025280AD0514699
:102B80004A4690476D1C7F1C28780028F5D13846AE
:102B9000BDE8F88F002315F8011F18462E2915D11E
:102BA00015F8011F04232A290DD06FF02F02297870
:102BB000A1F13004092C09D800EB800002EB4000A1
:102BC00008446D1CF3E758F8040B6D1C2A78002AA2
:102BD000DDD0632A07D0732A0FD0104651464A46EB
:102BE00090477F1C2AE018F8042B8DF80020002164
:102BF0008DF801106E46012103E058F8046B4FF088
:102C0000FF315A074FF0000401D409E0641C8442EC
:102C10000BDA8C42FADB325D002AF7D105E0641C46
:102C20008C42FCDB305D0028F9D1274404E016F823
:102C3000010B51464A469047641EF8D26D1CA3E72B
:102C40000A68531C0B6010707047092801DD57306B
:102C500000E03030C0B2704738B50D460346010081
:102C600000D54B425FF0000493FBF2F002FB103002
:102C7000FFF7EBFF93FBF2F32855641C002BF3DC0A
:102C8000002902DA2D202855641C0020285504460E
:102C900000902846FDF76AFA401E06D469462A5C71
:102CA0000A55401E04F10104F9D538BD86B0FDF780
:102CB000F1FEFEF701FD14216846FDF74CFA1020E5
:102CC000FEF7A4FA2020FEF7A1FA0420FEF79EFAF0
:102CD000534852494FF40052426100910121019141
:102CE00002210024CDE902146946FEF79BFA40F266
:102CF0000110CDE9000469464A48FEF793FAFEF751
:102D000049FBFEF70DFB484C4848FDF70DFC6421DC
:102D10004648FDF717FD01214448FDF7F5FB2080EB
:102D200002214248FDF7F0FB608003213F48FDF798
:102D3000EBFB3D49A08020880A220C39FFF78CFF6D
:102D4000394800250C38FDF711FA37490C39401E77
:102D500005E04A5D0B5C4B550A54401E6D1C8542D4
:102D6000F7DB314A32A10C3A02F11200FFF7CAFE3A
:102D70002D480621801DFDF7C1FA3220FDF77AFDAE
:102D8000294960880A220839FFF766FF264800258E
:102D90000838FDF7EBF924490839401E05E04A5D83
:102DA0000B5C4B550A54401E6D1C8542F7DB1E4AD6
:102DB0001FA1083A02F11400FFF7A4FE1A480621E9
:102DC0000C30FDF79BFA3220FDF754FD1649A08820
:102DD0000A22091FFFF740FF13480025001FFDF7D7
:102DE000C5F91149091F401E05E04A5D0B5C4B55B2
:102DF0000A54401E6D1C8542F7DB0B4A0DA1121FC1
:102E000002F11600FFF77EFE074807211230FDF79A
:102E100075FA3220FDF72EFD76E700002000200431
:102E200000100140000801400C000020AC0100200F
:102E30002573200025730A0D00000000000000002B
:102E400001020304642E000800000020AC01000011
:102E5000A0010008242F0008AC0100205415000038
:102E60005C2B0008012813451B1B0875041A8104FC
:102E70001AA9041AD5041A25041A510417040309BF
:102E80000412011402020216408304405726020174
:102E9000020301031A1A0313C1021B08BB041AB769
:102EA000041AE504192F1182105324F4130A063270
:102EB000022A401C1C090243571125C03209041B79
:102EC00001020B1305241610010524011009010449
:102ED000240202052406170107058203081C1009B5
:102EE000048D320A1D07050102432C0705810709DD
:102EF00038442A40072A8107112B0907440A3B045A
:102F00004413B1181B08190413991942081A5D0CCF
:102F100013A5171B08EB04C11A99182A8D1C190454
:042F20001A8104000E
:04000005080000ED02
:00000001FF
